{
  "contractName": "FundraiserFactory",
  "abi": [
    {
      "anonymous": false,
      "inputs": [
        {
          "indexed": true,
          "internalType": "contract Fundraiser",
          "name": "fundraiser",
          "type": "address"
        },
        {
          "indexed": true,
          "internalType": "address",
          "name": "owner",
          "type": "address"
        }
      ],
      "name": "FundraiserCreated",
      "type": "event"
    },
    {
      "inputs": [],
      "name": "fundraisersCount",
      "outputs": [
        {
          "internalType": "uint256",
          "name": "",
          "type": "uint256"
        }
      ],
      "stateMutability": "view",
      "type": "function",
      "constant": true
    },
    {
      "inputs": [
        {
          "internalType": "string",
          "name": "name",
          "type": "string"
        },
        {
          "internalType": "string",
          "name": "url",
          "type": "string"
        },
        {
          "internalType": "string",
          "name": "imageURL",
          "type": "string"
        },
        {
          "internalType": "string",
          "name": "description",
          "type": "string"
        },
        {
          "internalType": "address payable",
          "name": "beneficiary",
          "type": "address"
        }
      ],
      "name": "createFundraiser",
      "outputs": [],
      "stateMutability": "nonpayable",
      "type": "function"
    },
    {
      "inputs": [
        {
          "internalType": "uint256",
          "name": "limit",
          "type": "uint256"
        },
        {
          "internalType": "uint256",
          "name": "offset",
          "type": "uint256"
        }
      ],
      "name": "fundraisers",
      "outputs": [
        {
          "internalType": "contract Fundraiser[]",
          "name": "coll",
          "type": "address[]"
        }
      ],
      "stateMutability": "view",
      "type": "function",
      "constant": true
    }
  ],
  "bytecode": "0x608060405234801561001057600080fd5b5061277f806100206000396000f3fe60806040523480156200001157600080fd5b5060043610620000465760003560e01c806311d752ad146200004b578063704914f8146200006b5780639d3b435514620000a1575b600080fd5b62000069600480360381019062000063919062000565565b620000c3565b005b6200008960048036038101906200008391906200064b565b62000250565b604051620000989190620007d7565b60405180910390f35b620000ab62000468565b604051620000ba9190620008a6565b60405180910390f35b6000858585858533604051620000d99062000474565b620000ea96959493929190620007fb565b604051809103906000f08015801562000107573d6000803e3d6000fd5b5090506000819080600181540180825580915050600190039060005260206000200160009091909190916101000a81548173ffffffffffffffffffffffffffffffffffffffff021916908373ffffffffffffffffffffffffffffffffffffffff1602179055508073ffffffffffffffffffffffffffffffffffffffff16638da5cb5b6040518163ffffffff1660e01b815260040160206040518083038186803b158015620001b457600080fd5b505afa158015620001c9573d6000803e3d6000fd5b505050506040513d601f19601f82011682018060405250810190620001ef919062000539565b73ffffffffffffffffffffffffffffffffffffffff168173ffffffffffffffffffffffffffffffffffffffff167fa2398daac0c8053a1e3c0280916c2ec6bc884f0959c27e639a4db829b7eabfb160405160405180910390a3505050505050565b60606200025c62000468565b821115620002a1576040517f08c379a0000000000000000000000000000000000000000000000000000000008152600401620002989062000884565b60405180910390fd5b600082620002ae62000468565b620002ba9190620009dc565b9050838110620002cb5783620002cd565b805b905060148110620002e0576014620002e2565b805b90508067ffffffffffffffff81111562000325577f4e487b7100000000000000000000000000000000000000000000000000000000600052604160045260246000fd5b604051908082528060200260200182016040528015620003545781602001602082028036833780820191505090505b50915060005b818110156200046057600081856200037391906200097f565b81548110620003ab577f4e487b7100000000000000000000000000000000000000000000000000000000600052603260045260246000fd5b9060005260206000200160009054906101000a900473ffffffffffffffffffffffffffffffffffffffff1683828151811062000410577f4e487b7100000000000000000000000000000000000000000000000000000000600052603260045260246000fd5b602002602001019073ffffffffffffffffffffffffffffffffffffffff16908173ffffffffffffffffffffffffffffffffffffffff16815250508080620004579062000ad6565b9150506200035a565b505092915050565b60008080549050905090565b611b688062000be283390190565b6000620004996200049384620008f7565b620008c3565b905082815260208101848484011115620004b257600080fd5b620004bf84828562000a91565b509392505050565b600081519050620004d88162000b93565b92915050565b600081359050620004ef8162000bad565b92915050565b600082601f8301126200050757600080fd5b81356200051984826020860162000482565b91505092915050565b600081359050620005338162000bc7565b92915050565b6000602082840312156200054c57600080fd5b60006200055c84828501620004c7565b91505092915050565b600080600080600060a086880312156200057e57600080fd5b600086013567ffffffffffffffff8111156200059957600080fd5b620005a788828901620004f5565b955050602086013567ffffffffffffffff811115620005c557600080fd5b620005d388828901620004f5565b945050604086013567ffffffffffffffff811115620005f157600080fd5b620005ff88828901620004f5565b935050606086013567ffffffffffffffff8111156200061d57600080fd5b6200062b88828901620004f5565b92505060806200063e88828901620004de565b9150509295509295909350565b600080604083850312156200065f57600080fd5b60006200066f8582860162000522565b9250506020620006828582860162000522565b9150509250929050565b60006200069a838362000732565b60208301905092915050565b620006b18162000a2b565b82525050565b620006c28162000a17565b82525050565b6000620006d5826200093a565b620006e181856200095d565b9350620006ee836200092a565b8060005b83811015620007255781516200070988826200068c565b9750620007168362000950565b925050600181019050620006f2565b5085935050505092915050565b6200073d8162000a69565b82525050565b6000620007508262000945565b6200075c81856200096e565b93506200076e81856020860162000aa0565b620007798162000b82565b840191505092915050565b6000620007936014836200096e565b91507f6f6666736574206f7574206f6620626f756e64730000000000000000000000006000830152602082019050919050565b620007d18162000a5f565b82525050565b60006020820190508181036000830152620007f38184620006c8565b905092915050565b600060c082019050818103600083015262000817818962000743565b905081810360208301526200082d818862000743565b9050818103604083015262000843818762000743565b9050818103606083015262000859818662000743565b90506200086a6080830185620006a6565b6200087960a0830184620006b7565b979650505050505050565b600060208201905081810360008301526200089f8162000784565b9050919050565b6000602082019050620008bd6000830184620007c6565b92915050565b6000604051905081810181811067ffffffffffffffff82111715620008ed57620008ec62000b53565b5b8060405250919050565b600067ffffffffffffffff82111562000915576200091462000b53565b5b601f19601f8301169050602081019050919050565b6000819050602082019050919050565b600081519050919050565b600081519050919050565b6000602082019050919050565b600082825260208201905092915050565b600082825260208201905092915050565b60006200098c8262000a5f565b9150620009998362000a5f565b9250827fffffffffffffffffffffffffffffffffffffffffffffffffffffffffffffffff03821115620009d157620009d062000b24565b5b828201905092915050565b6000620009e98262000a5f565b9150620009f68362000a5f565b92508282101562000a0c5762000a0b62000b24565b5b828203905092915050565b600062000a248262000a3f565b9050919050565b600062000a388262000a3f565b9050919050565b600073ffffffffffffffffffffffffffffffffffffffff82169050919050565b6000819050919050565b600062000a768262000a7d565b9050919050565b600062000a8a8262000a3f565b9050919050565b82818337600083830152505050565b60005b8381101562000ac057808201518184015260208101905062000aa3565b8381111562000ad0576000848401525b50505050565b600062000ae38262000a5f565b91507fffffffffffffffffffffffffffffffffffffffffffffffffffffffffffffffff82141562000b195762000b1862000b24565b5b600182019050919050565b7f4e487b7100000000000000000000000000000000000000000000000000000000600052601160045260246000fd5b7f4e487b7100000000000000000000000000000000000000000000000000000000600052604160045260246000fd5b6000601f19601f8301169050919050565b62000b9e8162000a17565b811462000baa57600080fd5b50565b62000bb88162000a2b565b811462000bc457600080fd5b50565b62000bd28162000a5f565b811462000bde57600080fd5b5056fe60806040523480156200001157600080fd5b5060405162001b6838038062001b68833981810160405281019062000037919062000474565b620000576200004b6200011960201b60201c565b6200012160201b60201c565b85600490805190602001906200006f92919062000324565b5084600590805190602001906200008892919062000324565b508360069080519060200190620000a192919062000324565b508260079080519060200190620000ba92919062000324565b5081600860006101000a81548173ffffffffffffffffffffffffffffffffffffffff021916908373ffffffffffffffffffffffffffffffffffffffff1602179055506200010d81620001e560201b60201c565b5050505050506200081a565b600033905090565b60008060009054906101000a900473ffffffffffffffffffffffffffffffffffffffff169050816000806101000a81548173ffffffffffffffffffffffffffffffffffffffff021916908373ffffffffffffffffffffffffffffffffffffffff1602179055508173ffffffffffffffffffffffffffffffffffffffff168173ffffffffffffffffffffffffffffffffffffffff167f8be0079c531659141344cd1fd0a4f28419497f9722a3daafe3b4186f6b6457e060405160405180910390a35050565b620001f56200011960201b60201c565b73ffffffffffffffffffffffffffffffffffffffff166200021b620002fb60201b60201c565b73ffffffffffffffffffffffffffffffffffffffff161462000274576040517f08c379a00000000000000000000000000000000000000000000000000000000081526004016200026b906200063a565b60405180910390fd5b600073ffffffffffffffffffffffffffffffffffffffff168173ffffffffffffffffffffffffffffffffffffffff161415620002e7576040517f08c379a0000000000000000000000000000000000000000000000000000000008152600401620002de9062000618565b60405180910390fd5b620002f8816200012160201b60201c565b50565b60008060009054906101000a900473ffffffffffffffffffffffffffffffffffffffff16905090565b828054620003329062000752565b90600052602060002090601f016020900481019282620003565760008555620003a2565b82601f106200037157805160ff1916838001178555620003a2565b82800160010185558215620003a2579182015b82811115620003a157825182559160200191906001019062000384565b5b509050620003b19190620003b5565b5090565b5b80821115620003d0576000816000905550600101620003b6565b5090565b6000620003eb620003e58462000690565b6200065c565b9050828152602081018484840111156200040457600080fd5b620004118482856200071c565b509392505050565b6000815190506200042a81620007e6565b92915050565b600081519050620004418162000800565b92915050565b600082601f8301126200045957600080fd5b81516200046b848260208601620003d4565b91505092915050565b60008060008060008060c087890312156200048e57600080fd5b600087015167ffffffffffffffff811115620004a957600080fd5b620004b789828a0162000447565b965050602087015167ffffffffffffffff811115620004d557600080fd5b620004e389828a0162000447565b955050604087015167ffffffffffffffff8111156200050157600080fd5b6200050f89828a0162000447565b945050606087015167ffffffffffffffff8111156200052d57600080fd5b6200053b89828a0162000447565b93505060806200054e89828a0162000430565b92505060a06200056189828a0162000419565b9150509295509295509295565b60006200057d602683620006c3565b91507f4f776e61626c653a206e6577206f776e657220697320746865207a65726f206160008301527f64647265737300000000000000000000000000000000000000000000000000006020830152604082019050919050565b6000620005e5602083620006c3565b91507f4f776e61626c653a2063616c6c6572206973206e6f7420746865206f776e65726000830152602082019050919050565b6000602082019050818103600083015262000633816200056e565b9050919050565b600060208201905081810360008301526200065581620005d6565b9050919050565b6000604051905081810181811067ffffffffffffffff82111715620006865762000685620007b7565b5b8060405250919050565b600067ffffffffffffffff821115620006ae57620006ad620007b7565b5b601f19601f8301169050602081019050919050565b600082825260208201905092915050565b6000620006e182620006fc565b9050919050565b6000620006f582620006fc565b9050919050565b600073ffffffffffffffffffffffffffffffffffffffff82169050919050565b60005b838110156200073c5780820151818401526020810190506200071f565b838111156200074c576000848401525b50505050565b600060028204905060018216806200076b57607f821691505b6020821081141562000782576200078162000788565b5b50919050565b7f4e487b7100000000000000000000000000000000000000000000000000000000600052602260045260246000fd5b7f4e487b7100000000000000000000000000000000000000000000000000000000600052604160045260246000fd5b620007f181620006d4565b8114620007fd57600080fd5b50565b6200080b81620006e8565b81146200081757600080fd5b50565b61133e806200082a6000396000f3fe6080604052600436106100ec5760003560e01c80635600f04f1161008a578063b90497e011610059578063b90497e0146102d2578063de2ed893146102fd578063ed88c68e14610328578063f2fde38b14610332576100ed565b80635600f04f1461023a578063715018a6146102655780637284e4161461027c5780638da5cb5b146102a7576100ed565b80631c31f710116100c65780631c31f710146101a45780631f522595146101cd57806338af3eed146101f85780633ccfd60b14610223576100ed565b80630180b97c1461012257806306fdde031461014d5780631a57f7b414610178576100ed565b5b6101023460015461035b90919063ffffffff16565b6001819055506002600081548092919061011b90611222565b9190505550005b34801561012e57600080fd5b50610137610371565b60405161014491906110a9565b60405180910390f35b34801561015957600080fd5b506101626103bb565b60405161016f9190611047565b60405180910390f35b34801561018457600080fd5b5061018d610449565b60405161019b929190611010565b60405180910390f35b3480156101b057600080fd5b506101cb60048036038101906101c69190610e20565b61067c565b005b3480156101d957600080fd5b506101e261073c565b6040516101ef91906110a9565b60405180910390f35b34801561020457600080fd5b5061020d610742565b60405161021a9190610ff5565b60405180910390f35b34801561022f57600080fd5b50610238610768565b005b34801561024657600080fd5b5061024f61088c565b60405161025c9190611047565b60405180910390f35b34801561027157600080fd5b5061027a61091a565b005b34801561028857600080fd5b506102916109a2565b60405161029e9190611047565b60405180910390f35b3480156102b357600080fd5b506102bc610a30565b6040516102c99190610fda565b60405180910390f35b3480156102de57600080fd5b506102e7610a59565b6040516102f49190611047565b60405180910390f35b34801561030957600080fd5b50610312610ae7565b60405161031f91906110a9565b60405180910390f35b610330610aed565b005b34801561033e57600080fd5b5061035960048036038101906103549190610df7565b610c09565b005b600081836103699190611119565b905092915050565b6000600360003373ffffffffffffffffffffffffffffffffffffffff1673ffffffffffffffffffffffffffffffffffffffff16815260200190815260200160002080549050905090565b600480546103c8906111f0565b80601f01602080910402602001604051908101604052809291908181526020018280546103f4906111f0565b80156104415780601f1061041657610100808354040283529160200191610441565b820191906000526020600020905b81548152906001019060200180831161042457829003601f168201915b505050505081565b6060806000610456610371565b90508067ffffffffffffffff811115610498577f4e487b7100000000000000000000000000000000000000000000000000000000600052604160045260246000fd5b6040519080825280602002602001820160405280156104c65781602001602082028036833780820191505090505b5092508067ffffffffffffffff811115610509577f4e487b7100000000000000000000000000000000000000000000000000000000600052604160045260246000fd5b6040519080825280602002602001820160405280156105375781602001602082028036833780820191505090505b50915060005b81811015610676576000600360003373ffffffffffffffffffffffffffffffffffffffff1673ffffffffffffffffffffffffffffffffffffffff16815260200190815260200160002082815481106105be577f4e487b7100000000000000000000000000000000000000000000000000000000600052603260045260246000fd5b90600052602060002090600202019050806000015485838151811061060c577f4e487b7100000000000000000000000000000000000000000000000000000000600052603260045260246000fd5b6020026020010181815250508060010154848381518110610656577f4e487b7100000000000000000000000000000000000000000000000000000000600052603260045260246000fd5b60200260200101818152505050808061066e90611222565b91505061053d565b50509091565b610684610d01565b73ffffffffffffffffffffffffffffffffffffffff166106a2610a30565b73ffffffffffffffffffffffffffffffffffffffff16146106f8576040517f08c379a00000000000000000000000000000000000000000000000000000000081526004016106ef90611089565b60405180910390fd5b80600860006101000a81548173ffffffffffffffffffffffffffffffffffffffff021916908373ffffffffffffffffffffffffffffffffffffffff16021790555050565b60025481565b600860009054906101000a900473ffffffffffffffffffffffffffffffffffffffff1681565b610770610d01565b73ffffffffffffffffffffffffffffffffffffffff1661078e610a30565b73ffffffffffffffffffffffffffffffffffffffff16146107e4576040517f08c379a00000000000000000000000000000000000000000000000000000000081526004016107db90611089565b60405180910390fd5b6000479050600860009054906101000a900473ffffffffffffffffffffffffffffffffffffffff1673ffffffffffffffffffffffffffffffffffffffff166108fc829081150290604051600060405180830381858888f19350505050158015610851573d6000803e3d6000fd5b507f5b6b431d4476a211bb7d41c20d1aab9ae2321deee0d20be3d9fc9b1093fa6e3d8160405161088191906110a9565b60405180910390a150565b60058054610899906111f0565b80601f01602080910402602001604051908101604052809291908181526020018280546108c5906111f0565b80156109125780601f106108e757610100808354040283529160200191610912565b820191906000526020600020905b8154815290600101906020018083116108f557829003601f168201915b505050505081565b610922610d01565b73ffffffffffffffffffffffffffffffffffffffff16610940610a30565b73ffffffffffffffffffffffffffffffffffffffff1614610996576040517f08c379a000000000000000000000000000000000000000000000000000000000815260040161098d90611089565b60405180910390fd5b6109a06000610d09565b565b600780546109af906111f0565b80601f01602080910402602001604051908101604052809291908181526020018280546109db906111f0565b8015610a285780601f106109fd57610100808354040283529160200191610a28565b820191906000526020600020905b815481529060010190602001808311610a0b57829003601f168201915b505050505081565b60008060009054906101000a900473ffffffffffffffffffffffffffffffffffffffff16905090565b60068054610a66906111f0565b80601f0160208091040260200160405190810160405280929190818152602001828054610a92906111f0565b8015610adf5780601f10610ab457610100808354040283529160200191610adf565b820191906000526020600020905b815481529060010190602001808311610ac257829003601f168201915b505050505081565b60015481565b60006040518060400160405280348152602001428152509050600360003373ffffffffffffffffffffffffffffffffffffffff1673ffffffffffffffffffffffffffffffffffffffff16815260200190815260200160002081908060018154018082558091505060019003906000526020600020906002020160009091909190915060008201518160000155602082015181600101555050610b9a3460015461035b90919063ffffffff16565b60018190555060026000815480929190610bb390611222565b91905055503373ffffffffffffffffffffffffffffffffffffffff167f264f630d9efa0d07053a31163641d9fcc0adafc9d9e76f1c37c2ce3a558d2c5234604051610bfe91906110a9565b60405180910390a250565b610c11610d01565b73ffffffffffffffffffffffffffffffffffffffff16610c2f610a30565b73ffffffffffffffffffffffffffffffffffffffff1614610c85576040517f08c379a0000000000000000000000000000000000000000000000000000000008152600401610c7c90611089565b60405180910390fd5b600073ffffffffffffffffffffffffffffffffffffffff168173ffffffffffffffffffffffffffffffffffffffff161415610cf5576040517f08c379a0000000000000000000000000000000000000000000000000000000008152600401610cec90611069565b60405180910390fd5b610cfe81610d09565b50565b600033905090565b60008060009054906101000a900473ffffffffffffffffffffffffffffffffffffffff169050816000806101000a81548173ffffffffffffffffffffffffffffffffffffffff021916908373ffffffffffffffffffffffffffffffffffffffff1602179055508173ffffffffffffffffffffffffffffffffffffffff168173ffffffffffffffffffffffffffffffffffffffff167f8be0079c531659141344cd1fd0a4f28419497f9722a3daafe3b4186f6b6457e060405160405180910390a35050565b600081359050610ddc816112da565b92915050565b600081359050610df1816112f1565b92915050565b600060208284031215610e0957600080fd5b6000610e1784828501610dcd565b91505092915050565b600060208284031215610e3257600080fd5b6000610e4084828501610de2565b91505092915050565b6000610e558383610fbc565b60208301905092915050565b610e6a81611181565b82525050565b610e798161116f565b82525050565b6000610e8a826110d4565b610e9481856110f7565b9350610e9f836110c4565b8060005b83811015610ed0578151610eb78882610e49565b9750610ec2836110ea565b925050600181019050610ea3565b5085935050505092915050565b6000610ee8826110df565b610ef28185611108565b9350610f028185602086016111bd565b610f0b816112c9565b840191505092915050565b6000610f23602683611108565b91507f4f776e61626c653a206e6577206f776e657220697320746865207a65726f206160008301527f64647265737300000000000000000000000000000000000000000000000000006020830152604082019050919050565b6000610f89602083611108565b91507f4f776e61626c653a2063616c6c6572206973206e6f7420746865206f776e65726000830152602082019050919050565b610fc5816111b3565b82525050565b610fd4816111b3565b82525050565b6000602082019050610fef6000830184610e70565b92915050565b600060208201905061100a6000830184610e61565b92915050565b6000604082019050818103600083015261102a8185610e7f565b9050818103602083015261103e8184610e7f565b90509392505050565b600060208201905081810360008301526110618184610edd565b905092915050565b6000602082019050818103600083015261108281610f16565b9050919050565b600060208201905081810360008301526110a281610f7c565b9050919050565b60006020820190506110be6000830184610fcb565b92915050565b6000819050602082019050919050565b600081519050919050565b600081519050919050565b6000602082019050919050565b600082825260208201905092915050565b600082825260208201905092915050565b6000611124826111b3565b915061112f836111b3565b9250827fffffffffffffffffffffffffffffffffffffffffffffffffffffffffffffffff038211156111645761116361126b565b5b828201905092915050565b600061117a82611193565b9050919050565b600061118c82611193565b9050919050565b600073ffffffffffffffffffffffffffffffffffffffff82169050919050565b6000819050919050565b60005b838110156111db5780820151818401526020810190506111c0565b838111156111ea576000848401525b50505050565b6000600282049050600182168061120857607f821691505b6020821081141561121c5761121b61129a565b5b50919050565b600061122d826111b3565b91507fffffffffffffffffffffffffffffffffffffffffffffffffffffffffffffffff8214156112605761125f61126b565b5b600182019050919050565b7f4e487b7100000000000000000000000000000000000000000000000000000000600052601160045260246000fd5b7f4e487b7100000000000000000000000000000000000000000000000000000000600052602260045260246000fd5b6000601f19601f8301169050919050565b6112e38161116f565b81146112ee57600080fd5b50565b6112fa81611181565b811461130557600080fd5b5056fea2646970667358221220d60cb1954251111c6ca5750c9d9f8a13e153acd7843e87c5f7d86265fc5cd2f964736f6c63430008000033a26469706673582212209d08063f0d5792b2be6cb1f7b39419b486be36811166fa6d4d3391941018608c64736f6c63430008000033",
  "immutableReferences": {},
  "source": "pragma solidity >= 0.8.0;\n\nimport \"./Fundraiser.sol\";\n\ncontract FundraiserFactory {\n  // max item return counts from fundraisers function\n  uint256 constant maxLimit = 20;\n\n  Fundraiser[] private _fundraisers;\n\n  event FundraiserCreated(Fundraiser indexed fundraiser, address indexed owner);\n\n  function fundraisersCount() public view returns(uint256) {\n    return _fundraisers.length;\n  }\n\n  function createFundraiser(\n    string memory name,\n    string memory url,\n    string memory imageURL,\n    string memory description,\n    address payable beneficiary\n  )\n  public \n  {\n    Fundraiser fundraiser = new Fundraiser(\n      name,\n      url,\n      imageURL,\n      description,\n      beneficiary,\n      msg.sender\n    );\n    _fundraisers.push(fundraiser);\n    emit FundraiserCreated(fundraiser, fundraiser.owner());\n  }\n\n  function fundraisers(uint256 limit, uint256 offset) public view returns(Fundraiser[] memory coll) {\n    require(offset <= fundraisersCount(), \"offset out of bounds\");\n\n    uint256 size = fundraisersCount() - offset;\n    size = size < limit ? size : limit;\n    size = size < maxLimit ? size : maxLimit;\n    coll = new Fundraiser[](size);\n\n    for(uint256 i = 0; i < size; i++) {\n      coll[i] = _fundraisers[offset + i];\n    }\n\n    return coll;\n  }\n}",
  "sourcePath": "/Users/piantongliangye/environment/block_chain_Workspaces/fundraiser/contracts/FundraiserFactory.sol",
  "compiler": {
    "name": "solc",
    "version": "0.8.0+commit.c7dfd78e.Emscripten.clang"
  },
  "schemaVersion": "3.4.2",
  "updatedAt": "2021-08-28T07:41:00.529Z",
  "networkType": "ethereum",
  "devdoc": {
    "kind": "dev",
    "methods": {},
    "version": 1
  },
  "userdoc": {
    "kind": "user",
    "methods": {},
    "version": 1
  }
}